{
  "contractName": "IPFSNFT",
  "abi": [
    {
      "inputs": [
        {
          "internalType": "string",
          "name": "name",
          "type": "string"
        },
        {
          "internalType": "string",
          "name": "symbol",
          "type": "string"
        },
        {
          "internalType": "string",
          "name": "baseURI",
          "type": "string"
        }
      ],
      "stateMutability": "nonpayable",
      "type": "constructor"
    },
    {
      "anonymous": false,
      "inputs": [
        {
          "indexed": true,
          "internalType": "address",
          "name": "owner",
          "type": "address"
        },
        {
          "indexed": true,
          "internalType": "address",
          "name": "approved",
          "type": "address"
        },
        {
          "indexed": true,
          "internalType": "uint256",
          "name": "tokenId",
          "type": "uint256"
        }
      ],
      "name": "Approval",
      "type": "event"
    },
    {
      "anonymous": false,
      "inputs": [
        {
          "indexed": true,
          "internalType": "address",
          "name": "owner",
          "type": "address"
        },
        {
          "indexed": true,
          "internalType": "address",
          "name": "operator",
          "type": "address"
        },
        {
          "indexed": false,
          "internalType": "bool",
          "name": "approved",
          "type": "bool"
        }
      ],
      "name": "ApprovalForAll",
      "type": "event"
    },
    {
      "anonymous": false,
      "inputs": [
        {
          "indexed": true,
          "internalType": "address",
          "name": "from",
          "type": "address"
        },
        {
          "indexed": true,
          "internalType": "address",
          "name": "to",
          "type": "address"
        },
        {
          "indexed": true,
          "internalType": "uint256",
          "name": "tokenId",
          "type": "uint256"
        }
      ],
      "name": "Transfer",
      "type": "event"
    },
    {
      "inputs": [
        {
          "internalType": "address",
          "name": "to",
          "type": "address"
        },
        {
          "internalType": "uint256",
          "name": "tokenId",
          "type": "uint256"
        }
      ],
      "name": "approve",
      "outputs": [],
      "stateMutability": "nonpayable",
      "type": "function"
    },
    {
      "inputs": [
        {
          "internalType": "address",
          "name": "owner",
          "type": "address"
        }
      ],
      "name": "balanceOf",
      "outputs": [
        {
          "internalType": "uint256",
          "name": "",
          "type": "uint256"
        }
      ],
      "stateMutability": "view",
      "type": "function",
      "constant": true
    },
    {
      "inputs": [
        {
          "internalType": "uint256",
          "name": "tokenId",
          "type": "uint256"
        }
      ],
      "name": "getApproved",
      "outputs": [
        {
          "internalType": "address",
          "name": "",
          "type": "address"
        }
      ],
      "stateMutability": "view",
      "type": "function",
      "constant": true
    },
    {
      "inputs": [
        {
          "internalType": "address",
          "name": "owner",
          "type": "address"
        },
        {
          "internalType": "address",
          "name": "operator",
          "type": "address"
        }
      ],
      "name": "isApprovedForAll",
      "outputs": [
        {
          "internalType": "bool",
          "name": "",
          "type": "bool"
        }
      ],
      "stateMutability": "view",
      "type": "function",
      "constant": true
    },
    {
      "inputs": [],
      "name": "name",
      "outputs": [
        {
          "internalType": "string",
          "name": "",
          "type": "string"
        }
      ],
      "stateMutability": "view",
      "type": "function",
      "constant": true
    },
    {
      "inputs": [
        {
          "internalType": "uint256",
          "name": "tokenId",
          "type": "uint256"
        }
      ],
      "name": "ownerOf",
      "outputs": [
        {
          "internalType": "address",
          "name": "",
          "type": "address"
        }
      ],
      "stateMutability": "view",
      "type": "function",
      "constant": true
    },
    {
      "inputs": [
        {
          "internalType": "address",
          "name": "from",
          "type": "address"
        },
        {
          "internalType": "address",
          "name": "to",
          "type": "address"
        },
        {
          "internalType": "uint256",
          "name": "tokenId",
          "type": "uint256"
        }
      ],
      "name": "safeTransferFrom",
      "outputs": [],
      "stateMutability": "nonpayable",
      "type": "function"
    },
    {
      "inputs": [
        {
          "internalType": "address",
          "name": "from",
          "type": "address"
        },
        {
          "internalType": "address",
          "name": "to",
          "type": "address"
        },
        {
          "internalType": "uint256",
          "name": "tokenId",
          "type": "uint256"
        },
        {
          "internalType": "bytes",
          "name": "_data",
          "type": "bytes"
        }
      ],
      "name": "safeTransferFrom",
      "outputs": [],
      "stateMutability": "nonpayable",
      "type": "function"
    },
    {
      "inputs": [
        {
          "internalType": "address",
          "name": "operator",
          "type": "address"
        },
        {
          "internalType": "bool",
          "name": "approved",
          "type": "bool"
        }
      ],
      "name": "setApprovalForAll",
      "outputs": [],
      "stateMutability": "nonpayable",
      "type": "function"
    },
    {
      "inputs": [
        {
          "internalType": "bytes4",
          "name": "interfaceId",
          "type": "bytes4"
        }
      ],
      "name": "supportsInterface",
      "outputs": [
        {
          "internalType": "bool",
          "name": "",
          "type": "bool"
        }
      ],
      "stateMutability": "view",
      "type": "function",
      "constant": true
    },
    {
      "inputs": [],
      "name": "symbol",
      "outputs": [
        {
          "internalType": "string",
          "name": "",
          "type": "string"
        }
      ],
      "stateMutability": "view",
      "type": "function",
      "constant": true
    },
    {
      "inputs": [
        {
          "internalType": "uint256",
          "name": "tokenId",
          "type": "uint256"
        }
      ],
      "name": "tokenURI",
      "outputs": [
        {
          "internalType": "string",
          "name": "",
          "type": "string"
        }
      ],
      "stateMutability": "view",
      "type": "function",
      "constant": true
    },
    {
      "inputs": [
        {
          "internalType": "address",
          "name": "from",
          "type": "address"
        },
        {
          "internalType": "address",
          "name": "to",
          "type": "address"
        },
        {
          "internalType": "uint256",
          "name": "tokenId",
          "type": "uint256"
        }
      ],
      "name": "transferFrom",
      "outputs": [],
      "stateMutability": "nonpayable",
      "type": "function"
    },
    {
      "inputs": [
        {
          "internalType": "address",
          "name": "to",
          "type": "address"
        },
        {
          "internalType": "string",
          "name": "imagehash",
          "type": "string"
        },
        {
          "internalType": "string",
          "name": "metadatahash",
          "type": "string"
        }
      ],
      "name": "mint",
      "outputs": [
        {
          "internalType": "uint256",
          "name": "",
          "type": "uint256"
        }
      ],
      "stateMutability": "nonpayable",
      "type": "function"
    }
  ],
  "bytecode": "0x60806040523480156200001157600080fd5b5060405162003006380380620030068339818101604052810190620000379190620001b1565b82828160009080519060200190620000519291906200008f565b5080600190805190602001906200006a9291906200008f565b5050508060099080519060200190620000859291906200008f565b5050505062000383565b8280546200009d90620002ef565b90600052602060002090601f016020900481019282620000c157600085556200010d565b82601f10620000dc57805160ff19168380011785556200010d565b828001600101855582156200010d579182015b828111156200010c578251825591602001919060010190620000ef565b5b5090506200011c919062000120565b5090565b5b808211156200013b57600081600090555060010162000121565b5090565b600062000156620001508462000286565b62000252565b9050828152602081018484840111156200016f57600080fd5b6200017c848285620002b9565b509392505050565b600082601f8301126200019657600080fd5b8151620001a88482602086016200013f565b91505092915050565b600080600060608486031215620001c757600080fd5b600084015167ffffffffffffffff811115620001e257600080fd5b620001f08682870162000184565b935050602084015167ffffffffffffffff8111156200020e57600080fd5b6200021c8682870162000184565b925050604084015167ffffffffffffffff8111156200023a57600080fd5b620002488682870162000184565b9150509250925092565b6000604051905081810181811067ffffffffffffffff821117156200027c576200027b62000354565b5b8060405250919050565b600067ffffffffffffffff821115620002a457620002a362000354565b5b601f19601f8301169050602081019050919050565b60005b83811015620002d9578082015181840152602081019050620002bc565b83811115620002e9576000848401525b50505050565b600060028204905060018216806200030857607f821691505b602082108114156200031f576200031e62000325565b5b50919050565b7f4e487b7100000000000000000000000000000000000000000000000000000000600052602260045260246000fd5b7f4e487b7100000000000000000000000000000000000000000000000000000000600052604160045260246000fd5b612c7380620003936000396000f3fe608060405234801561001057600080fd5b50600436106100ea5760003560e01c806370a082311161008c578063a22cb46511610066578063a22cb4651461026f578063b88d4fde1461028b578063c87b56dd146102a7578063e985e9c5146102d7576100ea565b806370a08231146101f157806395d89b4114610221578063990711901461023f576100ea565b8063095ea7b3116100c8578063095ea7b31461016d57806323b872dd1461018957806342842e0e146101a55780636352211e146101c1576100ea565b806301ffc9a7146100ef57806306fdde031461011f578063081812fc1461013d575b600080fd5b61010960048036038101906101049190611d6a565b610307565b60405161011691906125ab565b60405180910390f35b6101276103e9565b60405161013491906125c6565b60405180910390f35b61015760048036038101906101529190611dbc565b61047b565b6040516101649190612544565b60405180910390f35b61018760048036038101906101829190611d2e565b610500565b005b6101a3600480360381019061019e9190611ba9565b610618565b005b6101bf60048036038101906101ba9190611ba9565b610678565b005b6101db60048036038101906101d69190611dbc565b610698565b6040516101e89190612544565b60405180910390f35b61020b60048036038101906102069190611b44565b61074a565b6040516102189190612808565b60405180910390f35b610229610802565b60405161023691906125c6565b60405180910390f35b61025960048036038101906102549190611caf565b610894565b6040516102669190612808565b60405180910390f35b61028960048036038101906102849190611c73565b610977565b005b6102a560048036038101906102a09190611bf8565b610af8565b005b6102c160048036038101906102bc9190611dbc565b610b5a565b6040516102ce91906125c6565b60405180910390f35b6102f160048036038101906102ec9190611b6d565b610cac565b6040516102fe91906125ab565b60405180910390f35b60007f80ac58cd000000000000000000000000000000000000000000000000000000007bffffffffffffffffffffffffffffffffffffffffffffffffffffffff1916827bffffffffffffffffffffffffffffffffffffffffffffffffffffffff191614806103d257507f5b5e139f000000000000000000000000000000000000000000000000000000007bffffffffffffffffffffffffffffffffffffffffffffffffffffffff1916827bffffffffffffffffffffffffffffffffffffffffffffffffffffffff1916145b806103e257506103e182610d40565b5b9050919050565b6060600080546103f890612a68565b80601f016020809104026020016040519081016040528092919081815260200182805461042490612a68565b80156104715780601f1061044657610100808354040283529160200191610471565b820191906000526020600020905b81548152906001019060200180831161045457829003601f168201915b5050505050905090565b600061048682610daa565b6104c5576040517f08c379a00000000000000000000000000000000000000000000000000000000081526004016104bc90612748565b60405180910390fd5b6004600083815260200190815260200160002060009054906101000a900473ffffffffffffffffffffffffffffffffffffffff169050919050565b600061050b82610698565b90508073ffffffffffffffffffffffffffffffffffffffff168373ffffffffffffffffffffffffffffffffffffffff16141561057c576040517f08c379a0000000000000000000000000000000000000000000000000000000008152600401610573906127a8565b60405180910390fd5b8073ffffffffffffffffffffffffffffffffffffffff1661059b610e16565b73ffffffffffffffffffffffffffffffffffffffff1614806105ca57506105c9816105c4610e16565b610cac565b5b610609576040517f08c379a000000000000000000000000000000000000000000000000000000000815260040161060090612688565b60405180910390fd5b6106138383610e1e565b505050565b610629610623610e16565b82610ed7565b610668576040517f08c379a000000000000000000000000000000000000000000000000000000000815260040161065f906127c8565b60405180910390fd5b610673838383610fb5565b505050565b61069383838360405180602001604052806000815250610af8565b505050565b6000806002600084815260200190815260200160002060009054906101000a900473ffffffffffffffffffffffffffffffffffffffff169050600073ffffffffffffffffffffffffffffffffffffffff168173ffffffffffffffffffffffffffffffffffffffff161415610741576040517f08c379a0000000000000000000000000000000000000000000000000000000008152600401610738906126c8565b60405180910390fd5b80915050919050565b60008073ffffffffffffffffffffffffffffffffffffffff168273ffffffffffffffffffffffffffffffffffffffff1614156107bb576040517f08c379a00000000000000000000000000000000000000000000000000000000081526004016107b2906126a8565b60405180910390fd5b600360008373ffffffffffffffffffffffffffffffffffffffff1673ffffffffffffffffffffffffffffffffffffffff168152602001908152602001600020549050919050565b60606001805461081190612a68565b80601f016020809104026020016040519081016040528092919081815260200182805461083d90612a68565b801561088a5780601f1061085f5761010080835404028352916020019161088a565b820191906000526020600020905b81548152906001019060200180831161086d57829003601f168201915b5050505050905090565b600060016008846040516108a89190612509565b908152602001604051809103902060009054906101000a900460ff1660ff161415610908576040517f08c379a00000000000000000000000000000000000000000000000000000000081526004016108ff906127e8565b60405180910390fd5b600160088460405161091a9190612509565b908152602001604051809103902060006101000a81548160ff021916908360ff16021790555061094a6007611211565b60006109566007611227565b90506109628582611235565b61096c8184611403565b809150509392505050565b61097f610e16565b73ffffffffffffffffffffffffffffffffffffffff168273ffffffffffffffffffffffffffffffffffffffff1614156109ed576040517f08c379a00000000000000000000000000000000000000000000000000000000081526004016109e490612648565b60405180910390fd5b80600560006109fa610e16565b73ffffffffffffffffffffffffffffffffffffffff1673ffffffffffffffffffffffffffffffffffffffff16815260200190815260200160002060008473ffffffffffffffffffffffffffffffffffffffff1673ffffffffffffffffffffffffffffffffffffffff16815260200190815260200160002060006101000a81548160ff0219169083151502179055508173ffffffffffffffffffffffffffffffffffffffff16610aa7610e16565b73ffffffffffffffffffffffffffffffffffffffff167f17307eab39ab6107e8899845ad3d59bd9653f200f220920489ca2b5937696c3183604051610aec91906125ab565b60405180910390a35050565b610b09610b03610e16565b83610ed7565b610b48576040517f08c379a0000000000000000000000000000000000000000000000000000000008152600401610b3f906127c8565b60405180910390fd5b610b5484848484611477565b50505050565b6060610b6582610daa565b610ba4576040517f08c379a0000000000000000000000000000000000000000000000000000000008152600401610b9b90612728565b60405180910390fd5b6000600660008481526020019081526020016000208054610bc490612a68565b80601f0160208091040260200160405190810160405280929190818152602001828054610bf090612a68565b8015610c3d5780601f10610c1257610100808354040283529160200191610c3d565b820191906000526020600020905b815481529060010190602001808311610c2057829003601f168201915b505050505090506000610c4e6114d3565b9050600081511415610c64578192505050610ca7565b600082511115610c99578082604051602001610c81929190612520565b60405160208183030381529060405292505050610ca7565b610ca284611565565b925050505b919050565b6000600560008473ffffffffffffffffffffffffffffffffffffffff1673ffffffffffffffffffffffffffffffffffffffff16815260200190815260200160002060008373ffffffffffffffffffffffffffffffffffffffff1673ffffffffffffffffffffffffffffffffffffffff16815260200190815260200160002060009054906101000a900460ff16905092915050565b60007f01ffc9a7000000000000000000000000000000000000000000000000000000007bffffffffffffffffffffffffffffffffffffffffffffffffffffffff1916827bffffffffffffffffffffffffffffffffffffffffffffffffffffffff1916149050919050565b60008073ffffffffffffffffffffffffffffffffffffffff166002600084815260200190815260200160002060009054906101000a900473ffffffffffffffffffffffffffffffffffffffff1673ffffffffffffffffffffffffffffffffffffffff1614159050919050565b600033905090565b816004600083815260200190815260200160002060006101000a81548173ffffffffffffffffffffffffffffffffffffffff021916908373ffffffffffffffffffffffffffffffffffffffff160217905550808273ffffffffffffffffffffffffffffffffffffffff16610e9183610698565b73ffffffffffffffffffffffffffffffffffffffff167f8c5be1e5ebec7d5bd14f71427d1e84f3dd0314c0f7b2291e5b200ac8c7c3b92560405160405180910390a45050565b6000610ee282610daa565b610f21576040517f08c379a0000000000000000000000000000000000000000000000000000000008152600401610f1890612668565b60405180910390fd5b6000610f2c83610698565b90508073ffffffffffffffffffffffffffffffffffffffff168473ffffffffffffffffffffffffffffffffffffffff161480610f9b57508373ffffffffffffffffffffffffffffffffffffffff16610f838461047b565b73ffffffffffffffffffffffffffffffffffffffff16145b80610fac5750610fab8185610cac565b5b91505092915050565b8273ffffffffffffffffffffffffffffffffffffffff16610fd582610698565b73ffffffffffffffffffffffffffffffffffffffff161461102b576040517f08c379a000000000000000000000000000000000000000000000000000000000815260040161102290612768565b60405180910390fd5b600073ffffffffffffffffffffffffffffffffffffffff168273ffffffffffffffffffffffffffffffffffffffff16141561109b576040517f08c379a000000000000000000000000000000000000000000000000000000000815260040161109290612628565b60405180910390fd5b6110a683838361160c565b6110b1600082610e1e565b6001600360008573ffffffffffffffffffffffffffffffffffffffff1673ffffffffffffffffffffffffffffffffffffffff1681526020019081526020016000206000828254611101919061297e565b925050819055506001600360008473ffffffffffffffffffffffffffffffffffffffff1673ffffffffffffffffffffffffffffffffffffffff168152602001908152602001600020600082825461115891906128f7565b92505081905550816002600083815260200190815260200160002060006101000a81548173ffffffffffffffffffffffffffffffffffffffff021916908373ffffffffffffffffffffffffffffffffffffffff160217905550808273ffffffffffffffffffffffffffffffffffffffff168473ffffffffffffffffffffffffffffffffffffffff167fddf252ad1be2c89b69c2b068fc378daa952ba7f163c4a11628f55a4df523b3ef60405160405180910390a4505050565b6001816000016000828254019250508190555050565b600081600001549050919050565b600073ffffffffffffffffffffffffffffffffffffffff168273ffffffffffffffffffffffffffffffffffffffff1614156112a5576040517f08c379a000000000000000000000000000000000000000000000000000000000815260040161129c90612708565b60405180910390fd5b6112ae81610daa565b156112ee576040517f08c379a00000000000000000000000000000000000000000000000000000000081526004016112e590612608565b60405180910390fd5b6112fa6000838361160c565b6001600360008473ffffffffffffffffffffffffffffffffffffffff1673ffffffffffffffffffffffffffffffffffffffff168152602001908152602001600020600082825461134a91906128f7565b92505081905550816002600083815260200190815260200160002060006101000a81548173ffffffffffffffffffffffffffffffffffffffff021916908373ffffffffffffffffffffffffffffffffffffffff160217905550808273ffffffffffffffffffffffffffffffffffffffff16600073ffffffffffffffffffffffffffffffffffffffff167fddf252ad1be2c89b69c2b068fc378daa952ba7f163c4a11628f55a4df523b3ef60405160405180910390a45050565b61140c82610daa565b61144b576040517f08c379a0000000000000000000000000000000000000000000000000000000008152600401611442906126e8565b60405180910390fd5b80600660008481526020019081526020016000209080519060200190611472929190611968565b505050565b611482848484610fb5565b61148e84848484611611565b6114cd576040517f08c379a00000000000000000000000000000000000000000000000000000000081526004016114c4906125e8565b60405180910390fd5b50505050565b6060600980546114e290612a68565b80601f016020809104026020016040519081016040528092919081815260200182805461150e90612a68565b801561155b5780601f106115305761010080835404028352916020019161155b565b820191906000526020600020905b81548152906001019060200180831161153e57829003601f168201915b5050505050905090565b606061157082610daa565b6115af576040517f08c379a00000000000000000000000000000000000000000000000000000000081526004016115a690612788565b60405180910390fd5b60006115b96114d3565b905060008151116115d95760405180602001604052806000815250611604565b806115e3846117a8565b6040516020016115f4929190612520565b6040516020818303038152906040525b915050919050565b505050565b60006116328473ffffffffffffffffffffffffffffffffffffffff16611955565b1561179b578373ffffffffffffffffffffffffffffffffffffffff1663150b7a0261165b610e16565b8786866040518563ffffffff1660e01b815260040161167d949392919061255f565b602060405180830381600087803b15801561169757600080fd5b505af19250505080156116c857506040513d601f19601f820116820180604052508101906116c59190611d93565b60015b61174b573d80600081146116f8576040519150601f19603f3d011682016040523d82523d6000602084013e6116fd565b606091505b50600081511415611743576040517f08c379a000000000000000000000000000000000000000000000000000000000815260040161173a906125e8565b60405180910390fd5b805181602001fd5b63150b7a0260e01b7bffffffffffffffffffffffffffffffffffffffffffffffffffffffff1916817bffffffffffffffffffffffffffffffffffffffffffffffffffffffff1916149150506117a0565b600190505b949350505050565b606060008214156117f0576040518060400160405280600181526020017f30000000000000000000000000000000000000000000000000000000000000008152509050611950565b600082905060005b6000821461182257808061180b90612a9a565b915050600a8261181b919061294d565b91506117f8565b60008167ffffffffffffffff811115611864577f4e487b7100000000000000000000000000000000000000000000000000000000600052604160045260246000fd5b6040519080825280601f01601f1916602001820160405280156118965781602001600182028036833780820191505090505b5090505b60008514611949576001826118af919061297e565b9150600a856118be9190612ae3565b60306118ca91906128f7565b60f81b818381518110611906577f4e487b7100000000000000000000000000000000000000000000000000000000600052603260045260246000fd5b60200101907effffffffffffffffffffffffffffffffffffffffffffffffffffffffffffff1916908160001a905350600a85611942919061294d565b945061189a565b8093505050505b919050565b600080823b905060008111915050919050565b82805461197490612a68565b90600052602060002090601f01602090048101928261199657600085556119dd565b82601f106119af57805160ff19168380011785556119dd565b828001600101855582156119dd579182015b828111156119dc5782518255916020019190600101906119c1565b5b5090506119ea91906119ee565b5090565b5b80821115611a075760008160009055506001016119ef565b5090565b6000611a1e611a1984612854565b612823565b905082815260208101848484011115611a3657600080fd5b611a41848285612a26565b509392505050565b6000611a5c611a5784612884565b612823565b905082815260208101848484011115611a7457600080fd5b611a7f848285612a26565b509392505050565b600081359050611a9681612be1565b92915050565b600081359050611aab81612bf8565b92915050565b600081359050611ac081612c0f565b92915050565b600081519050611ad581612c0f565b92915050565b600082601f830112611aec57600080fd5b8135611afc848260208601611a0b565b91505092915050565b600082601f830112611b1657600080fd5b8135611b26848260208601611a49565b91505092915050565b600081359050611b3e81612c26565b92915050565b600060208284031215611b5657600080fd5b6000611b6484828501611a87565b91505092915050565b60008060408385031215611b8057600080fd5b6000611b8e85828601611a87565b9250506020611b9f85828601611a87565b9150509250929050565b600080600060608486031215611bbe57600080fd5b6000611bcc86828701611a87565b9350506020611bdd86828701611a87565b9250506040611bee86828701611b2f565b9150509250925092565b60008060008060808587031215611c0e57600080fd5b6000611c1c87828801611a87565b9450506020611c2d87828801611a87565b9350506040611c3e87828801611b2f565b925050606085013567ffffffffffffffff811115611c5b57600080fd5b611c6787828801611adb565b91505092959194509250565b60008060408385031215611c8657600080fd5b6000611c9485828601611a87565b9250506020611ca585828601611a9c565b9150509250929050565b600080600060608486031215611cc457600080fd5b6000611cd286828701611a87565b935050602084013567ffffffffffffffff811115611cef57600080fd5b611cfb86828701611b05565b925050604084013567ffffffffffffffff811115611d1857600080fd5b611d2486828701611b05565b9150509250925092565b60008060408385031215611d4157600080fd5b6000611d4f85828601611a87565b9250506020611d6085828601611b2f565b9150509250929050565b600060208284031215611d7c57600080fd5b6000611d8a84828501611ab1565b91505092915050565b600060208284031215611da557600080fd5b6000611db384828501611ac6565b91505092915050565b600060208284031215611dce57600080fd5b6000611ddc84828501611b2f565b91505092915050565b611dee816129b2565b82525050565b611dfd816129c4565b82525050565b6000611e0e826128b4565b611e1881856128ca565b9350611e28818560208601612a35565b611e3181612bd0565b840191505092915050565b6000611e47826128bf565b611e5181856128db565b9350611e61818560208601612a35565b611e6a81612bd0565b840191505092915050565b6000611e80826128bf565b611e8a81856128ec565b9350611e9a818560208601612a35565b80840191505092915050565b6000611eb36032836128db565b91507f4552433732313a207472616e7366657220746f206e6f6e20455243373231526560008301527f63656976657220696d706c656d656e74657200000000000000000000000000006020830152604082019050919050565b6000611f19601c836128db565b91507f4552433732313a20746f6b656e20616c7265616479206d696e746564000000006000830152602082019050919050565b6000611f596024836128db565b91507f4552433732313a207472616e7366657220746f20746865207a65726f2061646460008301527f72657373000000000000000000000000000000000000000000000000000000006020830152604082019050919050565b6000611fbf6019836128db565b91507f4552433732313a20617070726f766520746f2063616c6c6572000000000000006000830152602082019050919050565b6000611fff602c836128db565b91507f4552433732313a206f70657261746f7220717565727920666f72206e6f6e657860008301527f697374656e7420746f6b656e00000000000000000000000000000000000000006020830152604082019050919050565b60006120656038836128db565b91507f4552433732313a20617070726f76652063616c6c6572206973206e6f74206f7760008301527f6e6572206e6f7220617070726f76656420666f7220616c6c00000000000000006020830152604082019050919050565b60006120cb602a836128db565b91507f4552433732313a2062616c616e636520717565727920666f7220746865207a6560008301527f726f2061646472657373000000000000000000000000000000000000000000006020830152604082019050919050565b60006121316029836128db565b91507f4552433732313a206f776e657220717565727920666f72206e6f6e657869737460008301527f656e7420746f6b656e00000000000000000000000000000000000000000000006020830152604082019050919050565b6000612197602e836128db565b91507f45524337323155524953746f726167653a2055524920736574206f66206e6f6e60008301527f6578697374656e7420746f6b656e0000000000000000000000000000000000006020830152604082019050919050565b60006121fd6020836128db565b91507f4552433732313a206d696e7420746f20746865207a65726f20616464726573736000830152602082019050919050565b600061223d6031836128db565b91507f45524337323155524953746f726167653a2055524920717565727920666f722060008301527f6e6f6e6578697374656e7420746f6b656e0000000000000000000000000000006020830152604082019050919050565b60006122a3602c836128db565b91507f4552433732313a20617070726f76656420717565727920666f72206e6f6e657860008301527f697374656e7420746f6b656e00000000000000000000000000000000000000006020830152604082019050919050565b60006123096029836128db565b91507f4552433732313a207472616e73666572206f6620746f6b656e2074686174206960008301527f73206e6f74206f776e00000000000000000000000000000000000000000000006020830152604082019050919050565b600061236f602f836128db565b91507f4552433732314d657461646174613a2055524920717565727920666f72206e6f60008301527f6e6578697374656e7420746f6b656e00000000000000000000000000000000006020830152604082019050919050565b60006123d56021836128db565b91507f4552433732313a20617070726f76616c20746f2063757272656e74206f776e6560008301527f72000000000000000000000000000000000000000000000000000000000000006020830152604082019050919050565b600061243b6031836128db565b91507f4552433732313a207472616e736665722063616c6c6572206973206e6f74206f60008301527f776e6572206e6f7220617070726f7665640000000000000000000000000000006020830152604082019050919050565b60006124a16035836128db565b91507f4572726f723a20616e204e46542068617320616c7265616479206265656e206d60008301527f696e74656420666f72207468697320696d6167652e00000000000000000000006020830152604082019050919050565b61250381612a1c565b82525050565b60006125158284611e75565b915081905092915050565b600061252c8285611e75565b91506125388284611e75565b91508190509392505050565b60006020820190506125596000830184611de5565b92915050565b60006080820190506125746000830187611de5565b6125816020830186611de5565b61258e60408301856124fa565b81810360608301526125a08184611e03565b905095945050505050565b60006020820190506125c06000830184611df4565b92915050565b600060208201905081810360008301526125e08184611e3c565b905092915050565b6000602082019050818103600083015261260181611ea6565b9050919050565b6000602082019050818103600083015261262181611f0c565b9050919050565b6000602082019050818103600083015261264181611f4c565b9050919050565b6000602082019050818103600083015261266181611fb2565b9050919050565b6000602082019050818103600083015261268181611ff2565b9050919050565b600060208201905081810360008301526126a181612058565b9050919050565b600060208201905081810360008301526126c1816120be565b9050919050565b600060208201905081810360008301526126e181612124565b9050919050565b600060208201905081810360008301526127018161218a565b9050919050565b60006020820190508181036000830152612721816121f0565b9050919050565b6000602082019050818103600083015261274181612230565b9050919050565b6000602082019050818103600083015261276181612296565b9050919050565b60006020820190508181036000830152612781816122fc565b9050919050565b600060208201905081810360008301526127a181612362565b9050919050565b600060208201905081810360008301526127c1816123c8565b9050919050565b600060208201905081810360008301526127e18161242e565b9050919050565b6000602082019050818103600083015261280181612494565b9050919050565b600060208201905061281d60008301846124fa565b92915050565b6000604051905081810181811067ffffffffffffffff8211171561284a57612849612ba1565b5b8060405250919050565b600067ffffffffffffffff82111561286f5761286e612ba1565b5b601f19601f8301169050602081019050919050565b600067ffffffffffffffff82111561289f5761289e612ba1565b5b601f19601f8301169050602081019050919050565b600081519050919050565b600081519050919050565b600082825260208201905092915050565b600082825260208201905092915050565b600081905092915050565b600061290282612a1c565b915061290d83612a1c565b9250827fffffffffffffffffffffffffffffffffffffffffffffffffffffffffffffffff0382111561294257612941612b14565b5b828201905092915050565b600061295882612a1c565b915061296383612a1c565b92508261297357612972612b43565b5b828204905092915050565b600061298982612a1c565b915061299483612a1c565b9250828210156129a7576129a6612b14565b5b828203905092915050565b60006129bd826129fc565b9050919050565b60008115159050919050565b60007fffffffff0000000000000000000000000000000000000000000000000000000082169050919050565b600073ffffffffffffffffffffffffffffffffffffffff82169050919050565b6000819050919050565b82818337600083830152505050565b60005b83811015612a53578082015181840152602081019050612a38565b83811115612a62576000848401525b50505050565b60006002820490506001821680612a8057607f821691505b60208210811415612a9457612a93612b72565b5b50919050565b6000612aa582612a1c565b91507fffffffffffffffffffffffffffffffffffffffffffffffffffffffffffffffff821415612ad857612ad7612b14565b5b600182019050919050565b6000612aee82612a1c565b9150612af983612a1c565b925082612b0957612b08612b43565b5b828206905092915050565b7f4e487b7100000000000000000000000000000000000000000000000000000000600052601160045260246000fd5b7f4e487b7100000000000000000000000000000000000000000000000000000000600052601260045260246000fd5b7f4e487b7100000000000000000000000000000000000000000000000000000000600052602260045260246000fd5b7f4e487b7100000000000000000000000000000000000000000000000000000000600052604160045260246000fd5b6000601f19601f8301169050919050565b612bea816129b2565b8114612bf557600080fd5b50565b612c01816129c4565b8114612c0c57600080fd5b50565b612c18816129d0565b8114612c2357600080fd5b50565b612c2f81612a1c565b8114612c3a57600080fd5b5056fea2646970667358221220d201cda6816d71c1f53571e35353e130c6b6c86b024961ef7364d388d946f71664736f6c63430008000033",
  "immutableReferences": {},
  "source": "// SPDX-License-Identifier: MIT\npragma solidity ^0.8.0;\n\nimport \"../node_modules/@openzeppelin/contracts/utils/Counters.sol\";\nimport \"../node_modules/@openzeppelin/contracts/token/ERC721/extensions/ERC721URIStorage.sol\";\n\n//basic NFT contract\n//contains all ERC721 compliant functions\n//uses IPFS with metadata extension\n//Transfers: Allowed, Metadata: IPFS hashes\n\ncontract IPFSNFT is ERC721URIStorage {\n    using Counters for Counters.Counter;\n    Counters.Counter private _tokenIds;\n    mapping(string => uint8) hashes;\n    string private baseURI_;\n\n    constructor(string memory name, string memory symbol, string memory baseURI) ERC721(name, symbol) {\n        baseURI_ = baseURI;\n    }\n\n    function _baseURI() internal view virtual override returns (string memory) {\n        return baseURI_;\n    }\n\n    function mint(address to, string memory imagehash, string memory metadatahash)\n      public\n      returns (uint256)\n    {\n      //check if image hash already exists (image already minted)\n      //throw an error here if true\n      require(hashes[imagehash] != 1, \"Error: an NFT has already been minted for this image.\");\n\n      hashes[imagehash] = 1;\n\n      _tokenIds.increment();\n\n      uint256 newItemId = _tokenIds.current();\n      _mint(to, newItemId);\n      _setTokenURI(newItemId, metadatahash);\n\n      return newItemId;\n    }\n}\n",
  "sourcePath": "/Users/sydneybailey/Internship/Demo/contracts/IPFSNFT.sol",
  "compiler": {
    "name": "solc",
    "version": "0.8.0+commit.c7dfd78e.Emscripten.clang"
  },
  "schemaVersion": "3.4.2",
  "updatedAt": "2021-10-21T19:06:34.729Z",
  "networkType": "ethereum",
  "devdoc": {
    "kind": "dev",
    "methods": {
      "approve(address,uint256)": {
        "details": "See {IERC721-approve}."
      },
      "balanceOf(address)": {
        "details": "See {IERC721-balanceOf}."
      },
      "getApproved(uint256)": {
        "details": "See {IERC721-getApproved}."
      },
      "isApprovedForAll(address,address)": {
        "details": "See {IERC721-isApprovedForAll}."
      },
      "name()": {
        "details": "See {IERC721Metadata-name}."
      },
      "ownerOf(uint256)": {
        "details": "See {IERC721-ownerOf}."
      },
      "safeTransferFrom(address,address,uint256)": {
        "details": "See {IERC721-safeTransferFrom}."
      },
      "safeTransferFrom(address,address,uint256,bytes)": {
        "details": "See {IERC721-safeTransferFrom}."
      },
      "setApprovalForAll(address,bool)": {
        "details": "See {IERC721-setApprovalForAll}."
      },
      "supportsInterface(bytes4)": {
        "details": "See {IERC165-supportsInterface}."
      },
      "symbol()": {
        "details": "See {IERC721Metadata-symbol}."
      },
      "tokenURI(uint256)": {
        "details": "See {IERC721Metadata-tokenURI}."
      },
      "transferFrom(address,address,uint256)": {
        "details": "See {IERC721-transferFrom}."
      }
    },
    "version": 1
  },
  "userdoc": {
    "kind": "user",
    "methods": {},
    "version": 1
  }
}