{
  "contractName": "noTransferIPFSNFT",
  "abi": [
    {
      "inputs": [
        {
          "internalType": "string",
          "name": "name",
          "type": "string"
        },
        {
          "internalType": "string",
          "name": "symbol",
          "type": "string"
        },
        {
          "internalType": "string",
          "name": "baseURI",
          "type": "string"
        }
      ],
      "stateMutability": "nonpayable",
      "type": "constructor"
    },
    {
      "anonymous": false,
      "inputs": [
        {
          "indexed": true,
          "internalType": "address",
          "name": "owner",
          "type": "address"
        },
        {
          "indexed": true,
          "internalType": "address",
          "name": "approved",
          "type": "address"
        },
        {
          "indexed": true,
          "internalType": "uint256",
          "name": "tokenId",
          "type": "uint256"
        }
      ],
      "name": "Approval",
      "type": "event"
    },
    {
      "anonymous": false,
      "inputs": [
        {
          "indexed": true,
          "internalType": "address",
          "name": "owner",
          "type": "address"
        },
        {
          "indexed": true,
          "internalType": "address",
          "name": "operator",
          "type": "address"
        },
        {
          "indexed": false,
          "internalType": "bool",
          "name": "approved",
          "type": "bool"
        }
      ],
      "name": "ApprovalForAll",
      "type": "event"
    },
    {
      "anonymous": false,
      "inputs": [
        {
          "indexed": true,
          "internalType": "address",
          "name": "from",
          "type": "address"
        },
        {
          "indexed": true,
          "internalType": "address",
          "name": "to",
          "type": "address"
        },
        {
          "indexed": true,
          "internalType": "uint256",
          "name": "tokenId",
          "type": "uint256"
        }
      ],
      "name": "Transfer",
      "type": "event"
    },
    {
      "inputs": [
        {
          "internalType": "address",
          "name": "to",
          "type": "address"
        },
        {
          "internalType": "uint256",
          "name": "tokenId",
          "type": "uint256"
        }
      ],
      "name": "approve",
      "outputs": [],
      "stateMutability": "nonpayable",
      "type": "function"
    },
    {
      "inputs": [
        {
          "internalType": "address",
          "name": "owner",
          "type": "address"
        }
      ],
      "name": "balanceOf",
      "outputs": [
        {
          "internalType": "uint256",
          "name": "",
          "type": "uint256"
        }
      ],
      "stateMutability": "view",
      "type": "function",
      "constant": true
    },
    {
      "inputs": [
        {
          "internalType": "uint256",
          "name": "tokenId",
          "type": "uint256"
        }
      ],
      "name": "getApproved",
      "outputs": [
        {
          "internalType": "address",
          "name": "",
          "type": "address"
        }
      ],
      "stateMutability": "view",
      "type": "function",
      "constant": true
    },
    {
      "inputs": [
        {
          "internalType": "address",
          "name": "owner",
          "type": "address"
        },
        {
          "internalType": "address",
          "name": "operator",
          "type": "address"
        }
      ],
      "name": "isApprovedForAll",
      "outputs": [
        {
          "internalType": "bool",
          "name": "",
          "type": "bool"
        }
      ],
      "stateMutability": "view",
      "type": "function",
      "constant": true
    },
    {
      "inputs": [],
      "name": "name",
      "outputs": [
        {
          "internalType": "string",
          "name": "",
          "type": "string"
        }
      ],
      "stateMutability": "view",
      "type": "function",
      "constant": true
    },
    {
      "inputs": [
        {
          "internalType": "uint256",
          "name": "tokenId",
          "type": "uint256"
        }
      ],
      "name": "ownerOf",
      "outputs": [
        {
          "internalType": "address",
          "name": "",
          "type": "address"
        }
      ],
      "stateMutability": "view",
      "type": "function",
      "constant": true
    },
    {
      "inputs": [
        {
          "internalType": "address",
          "name": "operator",
          "type": "address"
        },
        {
          "internalType": "bool",
          "name": "approved",
          "type": "bool"
        }
      ],
      "name": "setApprovalForAll",
      "outputs": [],
      "stateMutability": "nonpayable",
      "type": "function"
    },
    {
      "inputs": [
        {
          "internalType": "bytes4",
          "name": "interfaceId",
          "type": "bytes4"
        }
      ],
      "name": "supportsInterface",
      "outputs": [
        {
          "internalType": "bool",
          "name": "",
          "type": "bool"
        }
      ],
      "stateMutability": "view",
      "type": "function",
      "constant": true
    },
    {
      "inputs": [],
      "name": "symbol",
      "outputs": [
        {
          "internalType": "string",
          "name": "",
          "type": "string"
        }
      ],
      "stateMutability": "view",
      "type": "function",
      "constant": true
    },
    {
      "inputs": [
        {
          "internalType": "uint256",
          "name": "tokenId",
          "type": "uint256"
        }
      ],
      "name": "tokenURI",
      "outputs": [
        {
          "internalType": "string",
          "name": "",
          "type": "string"
        }
      ],
      "stateMutability": "view",
      "type": "function",
      "constant": true
    },
    {
      "inputs": [
        {
          "internalType": "address",
          "name": "to",
          "type": "address"
        },
        {
          "internalType": "string",
          "name": "imagehash",
          "type": "string"
        },
        {
          "internalType": "string",
          "name": "metadatahash",
          "type": "string"
        }
      ],
      "name": "mint",
      "outputs": [
        {
          "internalType": "uint256",
          "name": "",
          "type": "uint256"
        }
      ],
      "stateMutability": "nonpayable",
      "type": "function"
    },
    {
      "inputs": [
        {
          "internalType": "address",
          "name": "from",
          "type": "address"
        },
        {
          "internalType": "address",
          "name": "to",
          "type": "address"
        },
        {
          "internalType": "uint256",
          "name": "tokenId",
          "type": "uint256"
        }
      ],
      "name": "transferFrom",
      "outputs": [],
      "stateMutability": "nonpayable",
      "type": "function"
    },
    {
      "inputs": [
        {
          "internalType": "address",
          "name": "from",
          "type": "address"
        },
        {
          "internalType": "address",
          "name": "to",
          "type": "address"
        },
        {
          "internalType": "uint256",
          "name": "tokenId",
          "type": "uint256"
        }
      ],
      "name": "safeTransferFrom",
      "outputs": [],
      "stateMutability": "nonpayable",
      "type": "function"
    },
    {
      "inputs": [
        {
          "internalType": "address",
          "name": "from",
          "type": "address"
        },
        {
          "internalType": "address",
          "name": "to",
          "type": "address"
        },
        {
          "internalType": "uint256",
          "name": "tokenId",
          "type": "uint256"
        },
        {
          "internalType": "bytes",
          "name": "_data",
          "type": "bytes"
        }
      ],
      "name": "safeTransferFrom",
      "outputs": [],
      "stateMutability": "nonpayable",
      "type": "function"
    }
  ],
  "bytecode": "0x60806040526001600a60006101000a81548160ff0219169083151502179055503480156200002c57600080fd5b5060405162003073380380620030738339818101604052810190620000529190620001cc565b828281600090805190602001906200006c929190620000aa565b50806001908051906020019062000085929190620000aa565b5050508060099080519060200190620000a0929190620000aa565b505050506200039e565b828054620000b8906200030a565b90600052602060002090601f016020900481019282620000dc576000855562000128565b82601f10620000f757805160ff191683800117855562000128565b8280016001018555821562000128579182015b82811115620001275782518255916020019190600101906200010a565b5b5090506200013791906200013b565b5090565b5b80821115620001565760008160009055506001016200013c565b5090565b6000620001716200016b84620002a1565b6200026d565b9050828152602081018484840111156200018a57600080fd5b62000197848285620002d4565b509392505050565b600082601f830112620001b157600080fd5b8151620001c38482602086016200015a565b91505092915050565b600080600060608486031215620001e257600080fd5b600084015167ffffffffffffffff811115620001fd57600080fd5b6200020b868287016200019f565b935050602084015167ffffffffffffffff8111156200022957600080fd5b62000237868287016200019f565b925050604084015167ffffffffffffffff8111156200025557600080fd5b62000263868287016200019f565b9150509250925092565b6000604051905081810181811067ffffffffffffffff821117156200029757620002966200036f565b5b8060405250919050565b600067ffffffffffffffff821115620002bf57620002be6200036f565b5b601f19601f8301169050602081019050919050565b60005b83811015620002f4578082015181840152602081019050620002d7565b8381111562000304576000848401525b50505050565b600060028204905060018216806200032357607f821691505b602082108114156200033a576200033962000340565b5b50919050565b7f4e487b7100000000000000000000000000000000000000000000000000000000600052602260045260246000fd5b7f4e487b7100000000000000000000000000000000000000000000000000000000600052604160045260246000fd5b612cc580620003ae6000396000f3fe608060405234801561001057600080fd5b50600436106100ea5760003560e01c806370a082311161008c578063a22cb46511610066578063a22cb4651461026f578063b88d4fde1461028b578063c87b56dd146102a7578063e985e9c5146102d7576100ea565b806370a08231146101f157806395d89b4114610221578063990711901461023f576100ea565b8063095ea7b3116100c8578063095ea7b31461016d57806323b872dd1461018957806342842e0e146101a55780636352211e146101c1576100ea565b806301ffc9a7146100ef57806306fdde031461011f578063081812fc1461013d575b600080fd5b61010960048036038101906101049190611de2565b610307565b60405161011691906125fd565b60405180910390f35b6101276103e9565b6040516101349190612618565b60405180910390f35b61015760048036038101906101529190611e34565b61047b565b6040516101649190612596565b60405180910390f35b61018760048036038101906101829190611da6565b610500565b005b6101a3600480360381019061019e9190611c21565b610618565b005b6101bf60048036038101906101ba9190611c21565b6106cf565b005b6101db60048036038101906101d69190611e34565b6106ef565b6040516101e89190612596565b60405180910390f35b61020b60048036038101906102069190611bbc565b6107a1565b604051610218919061285a565b60405180910390f35b610229610859565b6040516102369190612618565b60405180910390f35b61025960048036038101906102549190611d27565b6108eb565b604051610266919061285a565b60405180910390f35b61028960048036038101906102849190611ceb565b610998565b005b6102a560048036038101906102a09190611c70565b610b19565b005b6102c160048036038101906102bc9190611e34565b610bd2565b6040516102ce9190612618565b60405180910390f35b6102f160048036038101906102ec9190611be5565b610d24565b6040516102fe91906125fd565b60405180910390f35b60007f80ac58cd000000000000000000000000000000000000000000000000000000007bffffffffffffffffffffffffffffffffffffffffffffffffffffffff1916827bffffffffffffffffffffffffffffffffffffffffffffffffffffffff191614806103d257507f5b5e139f000000000000000000000000000000000000000000000000000000007bffffffffffffffffffffffffffffffffffffffffffffffffffffffff1916827bffffffffffffffffffffffffffffffffffffffffffffffffffffffff1916145b806103e257506103e182610db8565b5b9050919050565b6060600080546103f890612aba565b80601f016020809104026020016040519081016040528092919081815260200182805461042490612aba565b80156104715780601f1061044657610100808354040283529160200191610471565b820191906000526020600020905b81548152906001019060200180831161045457829003601f168201915b5050505050905090565b600061048682610e22565b6104c5576040517f08c379a00000000000000000000000000000000000000000000000000000000081526004016104bc9061279a565b60405180910390fd5b6004600083815260200190815260200160002060009054906101000a900473ffffffffffffffffffffffffffffffffffffffff169050919050565b600061050b826106ef565b90508073ffffffffffffffffffffffffffffffffffffffff168373ffffffffffffffffffffffffffffffffffffffff16141561057c576040517f08c379a0000000000000000000000000000000000000000000000000000000008152600401610573906127fa565b60405180910390fd5b8073ffffffffffffffffffffffffffffffffffffffff1661059b610e8e565b73ffffffffffffffffffffffffffffffffffffffff1614806105ca57506105c9816105c4610e8e565b610d24565b5b610609576040517f08c379a0000000000000000000000000000000000000000000000000000000008152600401610600906126da565b60405180910390fd5b6106138383610e96565b505050565b60011515600a60009054906101000a900460ff161515141561066f576040517f08c379a00000000000000000000000000000000000000000000000000000000081526004016106669061283a565b60405180910390fd5b61068061067a610e8e565b82610f4f565b6106bf576040517f08c379a00000000000000000000000000000000000000000000000000000000081526004016106b69061281a565b60405180910390fd5b6106ca83838361102d565b505050565b6106ea83838360405180602001604052806000815250610b19565b505050565b6000806002600084815260200190815260200160002060009054906101000a900473ffffffffffffffffffffffffffffffffffffffff169050600073ffffffffffffffffffffffffffffffffffffffff168173ffffffffffffffffffffffffffffffffffffffff161415610798576040517f08c379a000000000000000000000000000000000000000000000000000000000815260040161078f9061271a565b60405180910390fd5b80915050919050565b60008073ffffffffffffffffffffffffffffffffffffffff168273ffffffffffffffffffffffffffffffffffffffff161415610812576040517f08c379a0000000000000000000000000000000000000000000000000000000008152600401610809906126fa565b60405180910390fd5b600360008373ffffffffffffffffffffffffffffffffffffffff1673ffffffffffffffffffffffffffffffffffffffff168152602001908152602001600020549050919050565b60606001805461086890612aba565b80601f016020809104026020016040519081016040528092919081815260200182805461089490612aba565b80156108e15780601f106108b6576101008083540402835291602001916108e1565b820191906000526020600020905b8154815290600101906020018083116108c457829003601f168201915b5050505050905090565b600060016008846040516108ff919061255b565b908152602001604051809103902060009054906101000a900460ff1660ff16141561092957600080fd5b600160088460405161093b919061255b565b908152602001604051809103902060006101000a81548160ff021916908360ff16021790555061096b6007611289565b6000610977600761129f565b905061098385826112ad565b61098d818461147b565b809150509392505050565b6109a0610e8e565b73ffffffffffffffffffffffffffffffffffffffff168273ffffffffffffffffffffffffffffffffffffffff161415610a0e576040517f08c379a0000000000000000000000000000000000000000000000000000000008152600401610a059061269a565b60405180910390fd5b8060056000610a1b610e8e565b73ffffffffffffffffffffffffffffffffffffffff1673ffffffffffffffffffffffffffffffffffffffff16815260200190815260200160002060008473ffffffffffffffffffffffffffffffffffffffff1673ffffffffffffffffffffffffffffffffffffffff16815260200190815260200160002060006101000a81548160ff0219169083151502179055508173ffffffffffffffffffffffffffffffffffffffff16610ac8610e8e565b73ffffffffffffffffffffffffffffffffffffffff167f17307eab39ab6107e8899845ad3d59bd9653f200f220920489ca2b5937696c3183604051610b0d91906125fd565b60405180910390a35050565b60011515600a60009054906101000a900460ff1615151415610b70576040517f08c379a0000000000000000000000000000000000000000000000000000000008152600401610b679061283a565b60405180910390fd5b610b81610b7b610e8e565b83610f4f565b610bc0576040517f08c379a0000000000000000000000000000000000000000000000000000000008152600401610bb79061281a565b60405180910390fd5b610bcc848484846114ef565b50505050565b6060610bdd82610e22565b610c1c576040517f08c379a0000000000000000000000000000000000000000000000000000000008152600401610c139061277a565b60405180910390fd5b6000600660008481526020019081526020016000208054610c3c90612aba565b80601f0160208091040260200160405190810160405280929190818152602001828054610c6890612aba565b8015610cb55780601f10610c8a57610100808354040283529160200191610cb5565b820191906000526020600020905b815481529060010190602001808311610c9857829003601f168201915b505050505090506000610cc661154b565b9050600081511415610cdc578192505050610d1f565b600082511115610d11578082604051602001610cf9929190612572565b60405160208183030381529060405292505050610d1f565b610d1a846115dd565b925050505b919050565b6000600560008473ffffffffffffffffffffffffffffffffffffffff1673ffffffffffffffffffffffffffffffffffffffff16815260200190815260200160002060008373ffffffffffffffffffffffffffffffffffffffff1673ffffffffffffffffffffffffffffffffffffffff16815260200190815260200160002060009054906101000a900460ff16905092915050565b60007f01ffc9a7000000000000000000000000000000000000000000000000000000007bffffffffffffffffffffffffffffffffffffffffffffffffffffffff1916827bffffffffffffffffffffffffffffffffffffffffffffffffffffffff1916149050919050565b60008073ffffffffffffffffffffffffffffffffffffffff166002600084815260200190815260200160002060009054906101000a900473ffffffffffffffffffffffffffffffffffffffff1673ffffffffffffffffffffffffffffffffffffffff1614159050919050565b600033905090565b816004600083815260200190815260200160002060006101000a81548173ffffffffffffffffffffffffffffffffffffffff021916908373ffffffffffffffffffffffffffffffffffffffff160217905550808273ffffffffffffffffffffffffffffffffffffffff16610f09836106ef565b73ffffffffffffffffffffffffffffffffffffffff167f8c5be1e5ebec7d5bd14f71427d1e84f3dd0314c0f7b2291e5b200ac8c7c3b92560405160405180910390a45050565b6000610f5a82610e22565b610f99576040517f08c379a0000000000000000000000000000000000000000000000000000000008152600401610f90906126ba565b60405180910390fd5b6000610fa4836106ef565b90508073ffffffffffffffffffffffffffffffffffffffff168473ffffffffffffffffffffffffffffffffffffffff16148061101357508373ffffffffffffffffffffffffffffffffffffffff16610ffb8461047b565b73ffffffffffffffffffffffffffffffffffffffff16145b8061102457506110238185610d24565b5b91505092915050565b8273ffffffffffffffffffffffffffffffffffffffff1661104d826106ef565b73ffffffffffffffffffffffffffffffffffffffff16146110a3576040517f08c379a000000000000000000000000000000000000000000000000000000000815260040161109a906127ba565b60405180910390fd5b600073ffffffffffffffffffffffffffffffffffffffff168273ffffffffffffffffffffffffffffffffffffffff161415611113576040517f08c379a000000000000000000000000000000000000000000000000000000000815260040161110a9061267a565b60405180910390fd5b61111e838383611684565b611129600082610e96565b6001600360008573ffffffffffffffffffffffffffffffffffffffff1673ffffffffffffffffffffffffffffffffffffffff168152602001908152602001600020600082825461117991906129d0565b925050819055506001600360008473ffffffffffffffffffffffffffffffffffffffff1673ffffffffffffffffffffffffffffffffffffffff16815260200190815260200160002060008282546111d09190612949565b92505081905550816002600083815260200190815260200160002060006101000a81548173ffffffffffffffffffffffffffffffffffffffff021916908373ffffffffffffffffffffffffffffffffffffffff160217905550808273ffffffffffffffffffffffffffffffffffffffff168473ffffffffffffffffffffffffffffffffffffffff167fddf252ad1be2c89b69c2b068fc378daa952ba7f163c4a11628f55a4df523b3ef60405160405180910390a4505050565b6001816000016000828254019250508190555050565b600081600001549050919050565b600073ffffffffffffffffffffffffffffffffffffffff168273ffffffffffffffffffffffffffffffffffffffff16141561131d576040517f08c379a00000000000000000000000000000000000000000000000000000000081526004016113149061275a565b60405180910390fd5b61132681610e22565b15611366576040517f08c379a000000000000000000000000000000000000000000000000000000000815260040161135d9061265a565b60405180910390fd5b61137260008383611684565b6001600360008473ffffffffffffffffffffffffffffffffffffffff1673ffffffffffffffffffffffffffffffffffffffff16815260200190815260200160002060008282546113c29190612949565b92505081905550816002600083815260200190815260200160002060006101000a81548173ffffffffffffffffffffffffffffffffffffffff021916908373ffffffffffffffffffffffffffffffffffffffff160217905550808273ffffffffffffffffffffffffffffffffffffffff16600073ffffffffffffffffffffffffffffffffffffffff167fddf252ad1be2c89b69c2b068fc378daa952ba7f163c4a11628f55a4df523b3ef60405160405180910390a45050565b61148482610e22565b6114c3576040517f08c379a00000000000000000000000000000000000000000000000000000000081526004016114ba9061273a565b60405180910390fd5b806006600084815260200190815260200160002090805190602001906114ea9291906119e0565b505050565b6114fa84848461102d565b61150684848484611689565b611545576040517f08c379a000000000000000000000000000000000000000000000000000000000815260040161153c9061263a565b60405180910390fd5b50505050565b60606009805461155a90612aba565b80601f016020809104026020016040519081016040528092919081815260200182805461158690612aba565b80156115d35780601f106115a8576101008083540402835291602001916115d3565b820191906000526020600020905b8154815290600101906020018083116115b657829003601f168201915b5050505050905090565b60606115e882610e22565b611627576040517f08c379a000000000000000000000000000000000000000000000000000000000815260040161161e906127da565b60405180910390fd5b600061163161154b565b90506000815111611651576040518060200160405280600081525061167c565b8061165b84611820565b60405160200161166c929190612572565b6040516020818303038152906040525b915050919050565b505050565b60006116aa8473ffffffffffffffffffffffffffffffffffffffff166119cd565b15611813578373ffffffffffffffffffffffffffffffffffffffff1663150b7a026116d3610e8e565b8786866040518563ffffffff1660e01b81526004016116f594939291906125b1565b602060405180830381600087803b15801561170f57600080fd5b505af192505050801561174057506040513d601f19601f8201168201806040525081019061173d9190611e0b565b60015b6117c3573d8060008114611770576040519150601f19603f3d011682016040523d82523d6000602084013e611775565b606091505b506000815114156117bb576040517f08c379a00000000000000000000000000000000000000000000000000000000081526004016117b29061263a565b60405180910390fd5b805181602001fd5b63150b7a0260e01b7bffffffffffffffffffffffffffffffffffffffffffffffffffffffff1916817bffffffffffffffffffffffffffffffffffffffffffffffffffffffff191614915050611818565b600190505b949350505050565b60606000821415611868576040518060400160405280600181526020017f300000000000000000000000000000000000000000000000000000000000000081525090506119c8565b600082905060005b6000821461189a57808061188390612aec565b915050600a82611893919061299f565b9150611870565b60008167ffffffffffffffff8111156118dc577f4e487b7100000000000000000000000000000000000000000000000000000000600052604160045260246000fd5b6040519080825280601f01601f19166020018201604052801561190e5781602001600182028036833780820191505090505b5090505b600085146119c15760018261192791906129d0565b9150600a856119369190612b35565b60306119429190612949565b60f81b81838151811061197e577f4e487b7100000000000000000000000000000000000000000000000000000000600052603260045260246000fd5b60200101907effffffffffffffffffffffffffffffffffffffffffffffffffffffffffffff1916908160001a905350600a856119ba919061299f565b9450611912565b8093505050505b919050565b600080823b905060008111915050919050565b8280546119ec90612aba565b90600052602060002090601f016020900481019282611a0e5760008555611a55565b82601f10611a2757805160ff1916838001178555611a55565b82800160010185558215611a55579182015b82811115611a54578251825591602001919060010190611a39565b5b509050611a629190611a66565b5090565b5b80821115611a7f576000816000905550600101611a67565b5090565b6000611a96611a91846128a6565b612875565b905082815260208101848484011115611aae57600080fd5b611ab9848285612a78565b509392505050565b6000611ad4611acf846128d6565b612875565b905082815260208101848484011115611aec57600080fd5b611af7848285612a78565b509392505050565b600081359050611b0e81612c33565b92915050565b600081359050611b2381612c4a565b92915050565b600081359050611b3881612c61565b92915050565b600081519050611b4d81612c61565b92915050565b600082601f830112611b6457600080fd5b8135611b74848260208601611a83565b91505092915050565b600082601f830112611b8e57600080fd5b8135611b9e848260208601611ac1565b91505092915050565b600081359050611bb681612c78565b92915050565b600060208284031215611bce57600080fd5b6000611bdc84828501611aff565b91505092915050565b60008060408385031215611bf857600080fd5b6000611c0685828601611aff565b9250506020611c1785828601611aff565b9150509250929050565b600080600060608486031215611c3657600080fd5b6000611c4486828701611aff565b9350506020611c5586828701611aff565b9250506040611c6686828701611ba7565b9150509250925092565b60008060008060808587031215611c8657600080fd5b6000611c9487828801611aff565b9450506020611ca587828801611aff565b9350506040611cb687828801611ba7565b925050606085013567ffffffffffffffff811115611cd357600080fd5b611cdf87828801611b53565b91505092959194509250565b60008060408385031215611cfe57600080fd5b6000611d0c85828601611aff565b9250506020611d1d85828601611b14565b9150509250929050565b600080600060608486031215611d3c57600080fd5b6000611d4a86828701611aff565b935050602084013567ffffffffffffffff811115611d6757600080fd5b611d7386828701611b7d565b925050604084013567ffffffffffffffff811115611d9057600080fd5b611d9c86828701611b7d565b9150509250925092565b60008060408385031215611db957600080fd5b6000611dc785828601611aff565b9250506020611dd885828601611ba7565b9150509250929050565b600060208284031215611df457600080fd5b6000611e0284828501611b29565b91505092915050565b600060208284031215611e1d57600080fd5b6000611e2b84828501611b3e565b91505092915050565b600060208284031215611e4657600080fd5b6000611e5484828501611ba7565b91505092915050565b611e6681612a04565b82525050565b611e7581612a16565b82525050565b6000611e8682612906565b611e90818561291c565b9350611ea0818560208601612a87565b611ea981612c22565b840191505092915050565b6000611ebf82612911565b611ec9818561292d565b9350611ed9818560208601612a87565b611ee281612c22565b840191505092915050565b6000611ef882612911565b611f02818561293e565b9350611f12818560208601612a87565b80840191505092915050565b6000611f2b60328361292d565b91507f4552433732313a207472616e7366657220746f206e6f6e20455243373231526560008301527f63656976657220696d706c656d656e74657200000000000000000000000000006020830152604082019050919050565b6000611f91601c8361292d565b91507f4552433732313a20746f6b656e20616c7265616479206d696e746564000000006000830152602082019050919050565b6000611fd160248361292d565b91507f4552433732313a207472616e7366657220746f20746865207a65726f2061646460008301527f72657373000000000000000000000000000000000000000000000000000000006020830152604082019050919050565b600061203760198361292d565b91507f4552433732313a20617070726f766520746f2063616c6c6572000000000000006000830152602082019050919050565b6000612077602c8361292d565b91507f4552433732313a206f70657261746f7220717565727920666f72206e6f6e657860008301527f697374656e7420746f6b656e00000000000000000000000000000000000000006020830152604082019050919050565b60006120dd60388361292d565b91507f4552433732313a20617070726f76652063616c6c6572206973206e6f74206f7760008301527f6e6572206e6f7220617070726f76656420666f7220616c6c00000000000000006020830152604082019050919050565b6000612143602a8361292d565b91507f4552433732313a2062616c616e636520717565727920666f7220746865207a6560008301527f726f2061646472657373000000000000000000000000000000000000000000006020830152604082019050919050565b60006121a960298361292d565b91507f4552433732313a206f776e657220717565727920666f72206e6f6e657869737460008301527f656e7420746f6b656e00000000000000000000000000000000000000000000006020830152604082019050919050565b600061220f602e8361292d565b91507f45524337323155524953746f726167653a2055524920736574206f66206e6f6e60008301527f6578697374656e7420746f6b656e0000000000000000000000000000000000006020830152604082019050919050565b600061227560208361292d565b91507f4552433732313a206d696e7420746f20746865207a65726f20616464726573736000830152602082019050919050565b60006122b560318361292d565b91507f45524337323155524953746f726167653a2055524920717565727920666f722060008301527f6e6f6e6578697374656e7420746f6b656e0000000000000000000000000000006020830152604082019050919050565b600061231b602c8361292d565b91507f4552433732313a20617070726f76656420717565727920666f72206e6f6e657860008301527f697374656e7420746f6b656e00000000000000000000000000000000000000006020830152604082019050919050565b600061238160298361292d565b91507f4552433732313a207472616e73666572206f6620746f6b656e2074686174206960008301527f73206e6f74206f776e00000000000000000000000000000000000000000000006020830152604082019050919050565b60006123e7602f8361292d565b91507f4552433732314d657461646174613a2055524920717565727920666f72206e6f60008301527f6e6578697374656e7420746f6b656e00000000000000000000000000000000006020830152604082019050919050565b600061244d60218361292d565b91507f4552433732313a20617070726f76616c20746f2063757272656e74206f776e6560008301527f72000000000000000000000000000000000000000000000000000000000000006020830152604082019050919050565b60006124b360318361292d565b91507f4552433732313a207472616e736665722063616c6c6572206973206e6f74206f60008301527f776e6572206e6f7220617070726f7665640000000000000000000000000000006020830152604082019050919050565b6000612519601f8361292d565b91507f5468697320746f6b656e206973204e4f54207472616e736665727261626c65006000830152602082019050919050565b61255581612a6e565b82525050565b60006125678284611eed565b915081905092915050565b600061257e8285611eed565b915061258a8284611eed565b91508190509392505050565b60006020820190506125ab6000830184611e5d565b92915050565b60006080820190506125c66000830187611e5d565b6125d36020830186611e5d565b6125e0604083018561254c565b81810360608301526125f28184611e7b565b905095945050505050565b60006020820190506126126000830184611e6c565b92915050565b600060208201905081810360008301526126328184611eb4565b905092915050565b6000602082019050818103600083015261265381611f1e565b9050919050565b6000602082019050818103600083015261267381611f84565b9050919050565b6000602082019050818103600083015261269381611fc4565b9050919050565b600060208201905081810360008301526126b38161202a565b9050919050565b600060208201905081810360008301526126d38161206a565b9050919050565b600060208201905081810360008301526126f3816120d0565b9050919050565b6000602082019050818103600083015261271381612136565b9050919050565b600060208201905081810360008301526127338161219c565b9050919050565b6000602082019050818103600083015261275381612202565b9050919050565b6000602082019050818103600083015261277381612268565b9050919050565b60006020820190508181036000830152612793816122a8565b9050919050565b600060208201905081810360008301526127b38161230e565b9050919050565b600060208201905081810360008301526127d381612374565b9050919050565b600060208201905081810360008301526127f3816123da565b9050919050565b6000602082019050818103600083015261281381612440565b9050919050565b60006020820190508181036000830152612833816124a6565b9050919050565b600060208201905081810360008301526128538161250c565b9050919050565b600060208201905061286f600083018461254c565b92915050565b6000604051905081810181811067ffffffffffffffff8211171561289c5761289b612bf3565b5b8060405250919050565b600067ffffffffffffffff8211156128c1576128c0612bf3565b5b601f19601f8301169050602081019050919050565b600067ffffffffffffffff8211156128f1576128f0612bf3565b5b601f19601f8301169050602081019050919050565b600081519050919050565b600081519050919050565b600082825260208201905092915050565b600082825260208201905092915050565b600081905092915050565b600061295482612a6e565b915061295f83612a6e565b9250827fffffffffffffffffffffffffffffffffffffffffffffffffffffffffffffffff0382111561299457612993612b66565b5b828201905092915050565b60006129aa82612a6e565b91506129b583612a6e565b9250826129c5576129c4612b95565b5b828204905092915050565b60006129db82612a6e565b91506129e683612a6e565b9250828210156129f9576129f8612b66565b5b828203905092915050565b6000612a0f82612a4e565b9050919050565b60008115159050919050565b60007fffffffff0000000000000000000000000000000000000000000000000000000082169050919050565b600073ffffffffffffffffffffffffffffffffffffffff82169050919050565b6000819050919050565b82818337600083830152505050565b60005b83811015612aa5578082015181840152602081019050612a8a565b83811115612ab4576000848401525b50505050565b60006002820490506001821680612ad257607f821691505b60208210811415612ae657612ae5612bc4565b5b50919050565b6000612af782612a6e565b91507fffffffffffffffffffffffffffffffffffffffffffffffffffffffffffffffff821415612b2a57612b29612b66565b5b600182019050919050565b6000612b4082612a6e565b9150612b4b83612a6e565b925082612b5b57612b5a612b95565b5b828206905092915050565b7f4e487b7100000000000000000000000000000000000000000000000000000000600052601160045260246000fd5b7f4e487b7100000000000000000000000000000000000000000000000000000000600052601260045260246000fd5b7f4e487b7100000000000000000000000000000000000000000000000000000000600052602260045260246000fd5b7f4e487b7100000000000000000000000000000000000000000000000000000000600052604160045260246000fd5b6000601f19601f8301169050919050565b612c3c81612a04565b8114612c4757600080fd5b50565b612c5381612a16565b8114612c5e57600080fd5b50565b612c6a81612a22565b8114612c7557600080fd5b50565b612c8181612a6e565b8114612c8c57600080fd5b5056fea2646970667358221220f702d92aec8c4647eb0d4fa10abdee260eed8536528d1b583fd0f407b9f4bc8664736f6c63430008000033",
  "immutableReferences": {},
  "source": "// SPDX-License-Identifier: MIT\npragma solidity ^0.8.0;\n\nimport \"../node_modules/@openzeppelin/contracts/utils/Counters.sol\";\nimport \"../node_modules/@openzeppelin/contracts/token/ERC721/extensions/ERC721URIStorage.sol\";\n\n//basic NFT contract\n//contains all ERC721 compliant functions (transfer functionality modified)\n//uses IPFS with metadata extension\n//Transfers: NOT allowed Metadata: IPFS hashes\n\n//maybe this could be deployed twice, using var to enable transfers to lower costs\n\ncontract noTransferIPFSNFT is ERC721URIStorage {\n    using Counters for Counters.Counter;\n    Counters.Counter private _tokenIds;\n    mapping(string => uint8) hashes;\n    string private baseURI_;\n    bool _noTransfer = true;\n\n    constructor(string memory name, string memory symbol, string memory baseURI) ERC721(name, symbol) {\n        baseURI_ = baseURI;\n    }\n\n    function _baseURI() internal view virtual override returns (string memory) {\n        return baseURI_;\n    }\n\n    function mint(address to, string memory imagehash, string memory metadatahash)\n      public\n      returns (uint256)\n    {\n      //check if image hash already exists (image already minted)\n      //throw an error here if true\n      require(hashes[imagehash] != 1);\n\n      hashes[imagehash] = 1;\n\n      _tokenIds.increment();\n\n      uint256 newItemId = _tokenIds.current();\n      _mint(to, newItemId);\n      _setTokenURI(newItemId, metadatahash);\n\n      return newItemId;\n    }\n\n    function transferFrom(\n      address from,\n      address to,\n      uint256 tokenId\n  ) public virtual override {\n      //solhint-disable-next-line max-line-length\n\n      //ensure transferring is allowed\n      require(_noTransfer != true, \"This token is NOT transferrable\");\n      require(_isApprovedOrOwner(_msgSender(), tokenId), \"ERC721: transfer caller is not owner nor approved\");\n\n      _transfer(from, to, tokenId);\n  }\n\n  function safeTransferFrom(\n      address from,\n      address to,\n      uint256 tokenId,\n      bytes memory _data\n  ) public virtual override {\n      //check if tranferring is enabled\n      require(_noTransfer != true, \"This token is NOT transferrable\");\n      require(_isApprovedOrOwner(_msgSender(), tokenId), \"ERC721: transfer caller is not owner nor approved\");\n      _safeTransfer(from, to, tokenId, _data);\n  }\n}\n",
  "sourcePath": "/Users/sydneybailey/Internship/Demo/contracts/noTransferIPFSNFT.sol",
  "compiler": {
    "name": "solc",
    "version": "0.8.0+commit.c7dfd78e.Emscripten.clang"
  },
  "schemaVersion": "3.4.2",
  "updatedAt": "2021-10-21T19:06:34.760Z",
  "networkType": "ethereum",
  "devdoc": {
    "kind": "dev",
    "methods": {
      "approve(address,uint256)": {
        "details": "See {IERC721-approve}."
      },
      "balanceOf(address)": {
        "details": "See {IERC721-balanceOf}."
      },
      "getApproved(uint256)": {
        "details": "See {IERC721-getApproved}."
      },
      "isApprovedForAll(address,address)": {
        "details": "See {IERC721-isApprovedForAll}."
      },
      "name()": {
        "details": "See {IERC721Metadata-name}."
      },
      "ownerOf(uint256)": {
        "details": "See {IERC721-ownerOf}."
      },
      "safeTransferFrom(address,address,uint256)": {
        "details": "See {IERC721-safeTransferFrom}."
      },
      "safeTransferFrom(address,address,uint256,bytes)": {
        "details": "See {IERC721-safeTransferFrom}."
      },
      "setApprovalForAll(address,bool)": {
        "details": "See {IERC721-setApprovalForAll}."
      },
      "supportsInterface(bytes4)": {
        "details": "See {IERC165-supportsInterface}."
      },
      "symbol()": {
        "details": "See {IERC721Metadata-symbol}."
      },
      "tokenURI(uint256)": {
        "details": "See {IERC721Metadata-tokenURI}."
      },
      "transferFrom(address,address,uint256)": {
        "details": "See {IERC721-transferFrom}."
      }
    },
    "version": 1
  },
  "userdoc": {
    "kind": "user",
    "methods": {},
    "version": 1
  }
}